:100000000C945E000C9469020C9442020C948600DD
:100010000C9486000C9486000C9486000C94860048
:100020000C9486000C9486000C9486000C94860038
:100030000C9486000C9486000C9486000C94860028
:100040000C94F8010C9486000C94B6020C94900267
:100050000C9486000C9486000C9486000C94860008
:100060000C9486000C9486000000000024002700F9
:100070002A0000000008000201000003040700003D
:10008000000000000000010204081020408001026E
:1000900004081020010204081020000000002500C0
:1000A00028002B00040404040404040402020202D5
:1000B0000202030303030303E8027F0411241FBEAB
:1000C000CFEFD8E0DEBFCDBF11E0A0E0B1E0EEE8B9
:1000D000FBE002C005900D92AA34B107D9F722E0E7
:1000E000AAE4B1E001C01D92AA30B207E1F710E026
:1000F000CDE5D0E004C02197FE010E948F04CC35ED
:10010000D107C9F70E94DA030C94BA050C940000D9
:10011000CF93DF9390E0FC01EA57FF4F24918C5579
:100120009F4FFC0184918823D1F090E0880F991FA4
:10013000FC01E859FF4FA591B491FC01E656FF4F31
:10014000C591D49161110EC09FB7F8948C91E22FA4
:10015000E0958E238C932881E223E8839FBFDF9173
:10016000CF9108958FB7F894EC91E22BEC938FBF69
:10017000F6CF0895AF92BF92CF92DF92EF92FF92A7
:100180000F931F93CF93DF936C017B018B01040FBF
:10019000151FEB015E01AE18BF08C017D10759F05B
:1001A0006991D601ED91FC910190F081E02DC6019D
:1001B0000995892B79F7C501DF91CF911F910F9197
:1001C000FF90EF90DF90CF90BF90AF900895FC012B
:1001D000538D448D252F30E0842F90E0821B930BAC
:1001E000541710F0CF96089501970895FC01918D52
:1001F000828D981761F0A28DAE0FBF2FB11D5D9655
:100200008C91928D9F5F9F73928F90E008958FEFF6
:100210009FEF0895FC01918D828D981731F0828DAA
:10022000E80FF11D858D90E008958FEF9FEF089501
:10023000FC01918D228D892F90E0805C9F4F821B65
:1002400091098F739927089583E591E00E94180121
:1002500021E0892B09F420E0822F089580E090E0CE
:10026000892B29F00E94240181110C94000008952B
:10027000FC01A48DA80FB92FB11DA35ABF4F2C911B
:10028000848D90E001968F739927848FA689B78912
:100290002C93A089B1898C91837080648C93938D09
:1002A000848D981306C00288F389E02D80818F7DAC
:1002B00080830895EF92FF920F931F93CF93DF9364
:1002C000EC0181E0888F9B8D8C8D98131AC0E88992
:1002D000F989808185FF15C09FB7F894EE89FF8961
:1002E0006083E889F98980818370806480839FBFFF
:1002F00081E090E0DF91CF911F910F91FF90EF90FF
:100300000895F62E0B8D10E00F5F1F4F0F7311270E
:10031000E02E8C8D8E110CC00FB607FCFACFE88949
:10032000F989808185FFF5CFCE010E943801F1CF98
:10033000EB8DEC0FFD2FF11DE35AFF4FF0829FB7BD
:10034000F8940B8FEA89FB8980818062CFCFCF93AD
:10035000DF93EC01888D8823B9F0AA89BB89E889ED
:10036000F9898C9185FD03C0808186FD0DC00FB693
:1003700007FCF7CF8C9185FFF2CF808185FFEDCF11
:10038000CE010E943801E9CFDF91CF910895CF933C
:10039000DF93FC0101900020E9F73197AF01481B82
:1003A000590BBC0183E591E00E94BA00EC0142E0E8
:1003B00050E06EE171E083E591E00E94BA008C0F9D
:1003C0009D1FDF91CF91089581E291E00E94C701C6
:1003D00080910401909105010196843091052CF4DF
:1003E0009093050180930401089581E090E0F8CF97
:1003F0001F920F920FB60F9211242F933F938F935A
:100400009F93AF93BF9380914F0190915001A09122
:100410005101B091520130914E0123E0230F2D374D
:1004200058F50196A11DB11D20934E0180934F01F7
:1004300090935001A0935101B093520180914A01D1
:1004400090914B01A0914C01B0914D010196A11DDD
:10045000B11D80934A0190934B01A0934C01B0933E
:100460004D01BF91AF919F918F913F912F910F902F
:100470000FBE0F901F90189526E8230F0296A11D1E
:10048000B11DD2CF1F920F920FB60F9211242F934E
:100490003F934F935F936F937F938F939F93AF930C
:1004A000BF93EF93FF93E0910201F091030109954F
:1004B000FF91EF91BF91AF919F918F917F916F913C
:1004C0005F914F913F912F910F900FBE0F901F9012
:1004D00018951F920F920FB60F9211242F933F93EE
:1004E0004F935F936F937F938F939F93AF93BF933C
:1004F000EF93FF93E0910001F09101010995FF91C5
:10050000EF91BF91AF919F918F917F916F915F918B
:100510004F913F912F910F900FBE0F901F90189504
:100520001F920F920FB60F9211242F933F934F9368
:100530005F936F937F938F939F93AF93BF93EF934B
:10054000FF9383E591E00E943801FF91EF91BF9105
:10055000AF919F918F917F916F915F914F913F915B
:100560002F910F900FBE0F901F9018951F920F9212
:100570000FB60F9211242F938F939F93EF93FF93B6
:10058000E0916301F09164018081E0916901F09153
:100590006A0182FD1BC0908180916C018F5F8F7317
:1005A00020916D01821741F0E0916C01F0E0ED5A6D
:1005B000FE4F958F80936C01FF91EF919F918F91EA
:1005C0002F910F900FBE0F901F9018958081F4CF40
:1005D0000F931F93CF93DF93109256011092550102
:1005E00088EE93E0A0E0B0E080935701909358012B
:1005F000A0935901B0935A0180E191E09093540186
:100600008093530185EC90E09093600180935F01AB
:1006100084EC90E0909362018093610180EC90E023
:10062000909364018093630181EC90E09093660164
:100630008093650182EC90E090936801809367015C
:1006400086EC90E090936A018093690110926C01AE
:1006500010926D0110926E0110926F011092F101D3
:100660001092F8011092FF01109200021092010204
:100670001092020283E08093FE0181E08093FB01EF
:100680001092FC0192E09093FD018093F0018CE1C7
:1006900090E09093F5018093F4010E94950490936B
:1006A000FA018093F901009709F459C02CE1FC018B
:1006B00011922A95E9F787E090E09093F3018093F7
:1006C000F20189E090E09093F7018093F6010FE842
:1006D00010E0CDEAD0E08091F101882349F161E09A
:1006E00089E00E948800EBE7F0E08491F8019491A2
:1006F000FE0124912223E1F0882359F0833009F48C
:1007000042C008F035C0813009F443C0823009F49A
:1007100044C0E22FF0E0EE0FFF1FE656FF4FA59119
:10072000B4918FB7F8942C91909592239C938FBF9E
:10073000FE01C491EC2FF0E0EE0FFF1FE656FF4FD5
:10074000859194919093040280930302F80104919F
:1007500000930502DF91CF911F910F9108951092A0
:10076000F5011092F4011092F3011092F201A9CF59
:100770008730B1F08830D1F0843009F0CACF809151
:1007800080008F7D03C0809180008F7780938000F0
:10079000C0CF84B58F7784BDBCCF84B58F7DFBCFB0
:1007A0008091B0008F778093B000B3CF8091B0007C
:1007B0008F7DF9CF789484B5826084BD84B58160E3
:1007C00084BD85B5826085BD85B5816085BD80911C
:1007D0006E00816080936E00109281008091810094
:1007E000826080938100809181008160809381008C
:1007F000809180008160809380008091B10084604E
:100800008093B1008091B00081608093B0008091AE
:100810007A00846080937A0080917A00826080936D
:100820007A0080917A00816080937A0080917A00CA
:10083000806880937A001092C100E0916301F0918A
:10084000640182E08083E0915F01F0916001108299
:10085000E0916101F09162018FEC808310926B0155
:10086000E0916701F091680186E08083E091650185
:10087000F0916601808180618083E0916501F09153
:100880006601808188608083E0916501F091660156
:10089000808180688083E0916501F09166018081AC
:1008A0008F7D808384EE91E090930101809300011D
:1008B00080916900836080936900E89AC0E0D0E08D
:1008C00080910401909105018230910591F083306F
:1008D000910591F0019721F48BE291E00E94C7010C
:1008E000209771F30E942401882351F30E94000095
:1008F000E7CF85E391E0F2CF8FE391E0EFCF8091F6
:10090000F9019091FA010E9431058091F6019091D0
:10091000F70197FD03C060E00C9488000895EE0F86
:10092000FF1F0590F491E02D09940F931F93CF932F
:10093000DF938230910510F482E090E0E0910802AC
:10094000F091090230E020E0B0E0A0E0309799F4A7
:100950002115310509F44AC0281B390B2430310513
:10096000D8F58A819B816115710589F1FB0193831B
:100970008283FE0111C04081518102811381481799
:100980005907E0F04817590799F4109761F012964B
:100990000C93129713961C933296CF01DF91CF914F
:1009A0001F910F9108950093080210930902F4CF4C
:1009B0002115310551F04217530738F0A901DB0129
:1009C0009A01BD01DF01F801C1CFEF01F9CF90938A
:1009D000090280930802CDCFFE01E20FF31F81933D
:1009E00091932250310939832883D7CF2091060271
:1009F00030910702232B41F4209108013091090125
:100A000030930702209306022091060130910701DE
:100A10002115310541F42DB73EB740910A0150919F
:100A20000B01241B350BE0910602F0910702E2173F
:100A3000F307A0F42E1B3F0B2817390778F0AC0101
:100A40004E5F5F4F2417350748F04E0F5F1F5093DE
:100A5000070240930602819391939FCFF0E0E0E07C
:100A60009CCFCF93DF930097E9F0FC01329713827C
:100A70001282A0910802B0910902ED0130E020E05D
:100A80001097A1F420813181820F931F20910602DB
:100A9000309107022817390709F061C0F093070267
:100AA000E0930602DF91CF910895EA01CE17DF07A8
:100AB000E8F54A815B819E0141155105B1F7E901D5
:100AC000FB83EA8349915991C40FD51FEC17FD07A9
:100AD00061F4808191810296840F951FE9019983C9
:100AE0008883828193819B838A83F0E0E0E0129681
:100AF0008D919C9113970097B9F52D913C91119789
:100B0000CD010296820F931F2091060230910702B9
:100B10002817390739F6309751F5109209021092CB
:100B20000802B0930702A0930602BCCFD383C2830E
:100B300040815181840F951FC817D90761F44E5F1A
:100B40005F4F88819981480F591F518340838A8163
:100B50009B81938382832115310509F0B0CFF093F7
:100B60000902E09308029ECFFD01DC01C0CF138291
:100B70001282D7CF10E0CDE5D0E004C0FE010E9484
:0E0B80008F042196CE35D107C9F7F894FFCF28
:100B8E00B900B900010000000A0280000000000058
:100B9E005A01BA00E700A7011801F6000A010D0A72
:100BAE0000496E746572727570740050726F677260
:100BBE00616D20310050726F6772616D203200508E
:0A0BCE00726F6772616D2033000042
:00000001FF
